:020000040800F2
:1000000000000220E9780008051800080D18000813
:100010000F1800081118000813180008000000004D
:10002000000000000000000000000000A16B0008BC
:100030001518000800000000416C00087F660008E9
:1000400039790008397900083979000839790008C8
:1000500039790008397900083979000839790008B8
:1000600039790008397900083979000839790008A8
:100070003979000839790008397900083979000898
:100080003979000839790008397900083979000888
:1000900039790008191800083979000839790008F9
:1000A00039790008291800083979000839790008D9
:1000B0003979000839790008397900083979000858
:1000C00039790008397900083979000839180008A9
:1000D0003979000839790008491800083979000889
:1000E0003979000839790008397900083979000828
:1000F0003979000839790008397900083979000818
:100100003979000839790008397900083979000807
:1001100039790008397900083979000839790008F7
:1001200039790008397900083979000839790008E7
:1001300039790008397900083979000839790008D7
:1001400039790008397900083979000839790008C7
:1001500039790008397900083979000839790008B7
:1001600039790008397900083979000839790008A7
:100170003979000839790008397900083979000897
:100180003979000839790008397900083979000887
:100190003979000800000000397900083979000831
:1001A0003979000839790008397900083979000867
:1001B0003979000839790008397900083979000857
:1001C0003979000839790008397900083979000847
:0801D0003979000839790008B3
:1001E00010B5054C237833B9044B13B10448AFF371
:1001F00000800123237010BD1801002000000000C2
:10020000041F010808B5034B1BB103490348AFF3B2
:10021000008008BD000000001C010020041F010830
:1002200001F0FF01102A2BDB10F0070F08D010F8A7
:10023000013B013A8B422DD010F0070F42B3F6D1AB
:10024000F0B441EA012141EA014122F007047FF0C4
:1002500000070023F0E80256083C85EA010586EA1B
:10026000010685FA47F5A3FA87F586FA47F6A5FA57
:1002700087F68EB9EED1F0BC01F0FF0102F0070263
:1002800032B110F8013B013A83EA010313B1F8D10E
:100290000020704701387047002D06BF35460338EF
:1002A000073815F0010F07D1013015F4807F02BF28
:1002B000013015F4C03F0130F0BC0138704700BF79
:1002C00081F0004102E000BF83F0004330B54FEA07
:1002D00041044FEA430594EA050F08BF90EA020F74
:1002E0001FBF54EA000C55EA020C7FEA645C7FEA07
:1002F000655C00F0E2804FEA5454D4EB5555B8BF2A
:100300006D420CDD2C4480EA020281EA030382EA9A
:10031000000083EA010180EA020281EA0303362D2C
:1003200088BF30BD11F0004F4FEA01314FF4801CFF
:100330004CEA113102D0404261EB410113F0004F11
:100340004FEA03334CEA133302D0524263EB4303C8
:1003500094EA050F00F0A780A4F10104D5F1200E66
:100360000DDB02FA0EFC22FA05F2801841F10001C1
:1003700003FA0EF2801843FA05F359410EE0A5F195
:1003800020050EF1200E012A03FA0EFC28BF4CF0C6
:10039000020C43FA05F3C01851EBE37101F000457C
:1003A00007D54FF0000EDCF1000C7EEB00006EEB89
:1003B0000101B1F5801F1BD3B1F5001F0CD3490813
:1003C0005FEA30004FEA3C0C04F101044FEA44526A
:1003D00012F5800F80F09A80BCF1004F08BF5FEAF1
:1003E000500C50F1000041EB045141EA050130BDD1
:1003F0005FEA4C0C404141EB0101013C28BFB1F5E3
:10040000801FE9D291F0000F04BF01460020B1FA2D
:1004100081F308BF2033A3F10B03B3F120020CDA00
:100420000C3208DD02F1140CC2F10C0201FA0CF0DE
:1004300021FA02F10CE002F11402D8BFC2F1200C43
:1004400001FA02F120FA0CFCDCBF41EA0C019040F9
:10045000E41AA2BF01EB0451294330BD6FEA040442
:100460001F3C1CDA0C340EDC04F11404C4F120022D
:1004700020FA04F001FA02F340EA030021FA04F33F
:1004800045EA030130BDC4F10C04C4F1200220FA96
:1004900002F001FA04F340EA0300294630BD21FAD4
:1004A00004F0294630BD94F0000F83F4801306BF9A
:1004B00081F480110134013D4EE77FEA645C18BF8E
:1004C0007FEA655C29D094EA050F08BF90EA020F25
:1004D00005D054EA000C04BF1946104630BD91EA1D
:1004E000030F1EBF0021002030BD5FEA545C05D120
:1004F0004000494128BF41F0004130BD14F580045F
:100500003CBF01F5801130BD01F0004545F0FE41D2
:1005100041F470014FF0000030BD7FEA645C1ABF07
:10052000194610467FEA655C1CBF0B46024650EA3E
:10053000013406BF52EA033591EA030F41F400216A
:1005400030BD00BF90F0000F04BF0021704730B5F0
:100550004FF4806404F132044FF000054FF00001C5
:1005600050E700BF90F0000F04BF0021704730B586
:100570004FF4806404F1320410F0004548BF40425B
:100580004FF000013EE700BF42004FEAE2014FEAB0
:1005900031014FEA02701FBF12F07F4393F07F4F8B
:1005A00081F06051704732F07F4208BF704793F08E
:1005B0007F4F04BF41F40021704730B54FF46074A1
:1005C00001F0004521F000411CE700BF50EA0102A4
:1005D00008BF704730B54FF000050AE050EA01024D
:1005E00008BF704730B511F0004502D5404261EBBD
:1005F00041014FF4806404F132045FEA915C3FF4FE
:10060000D8AE4FF003025FEADC0C18BF03325FEA9A
:10061000DC0C18BF033202EBDC02C2F1200300FA4B
:1006200003FC20FA02F001FA03FE40EA0E0021FA70
:1006300002F11444BDE600BF70B54FF0FF0C4CF45E
:10064000E06C1CEA11541DBF1CEA135594EA0C0F10
:1006500095EA0C0F00F0DEF82C4481EA030621EA4B
:100660004C5123EA4C5350EA013518BF52EA033586
:1006700041F4801143F4801338D0A0FB02CE4FF038
:100680000005E1FB02E506F00042E0FB03E54FF068
:100690000006E1FB03569CF0000F18BF4EF0010E60
:1006A000A4F1FF04B6F5007F64F5407404D25FEA5C
:1006B0004E0E6D4146EB060642EAC62141EA55510F
:1006C0004FEAC52040EA5E504FEACE2EB4F1FD0C51
:1006D00088BFBCF5E06F1ED8BEF1004F08BF5FEACF
:1006E000500E50F1000041EB045170BD06F0004681
:1006F00046EA010140EA020081EA0301B4EB5C042E
:10070000C2BFD4EB0C0541EA045170BD41F4801125
:100710004FF0000E013C00F3AB8014F1360FDEBF4A
:10072000002001F0004170BDC4F10004203C35DA26
:100730000C341BDC04F11404C4F1200500FA05F3A9
:1007400020FA04F001FA05F240EA020001F000424A
:1007500021F0004110EBD37021FA04F642EB0601C0
:100760005EEA430E08BF20EAD37070BDC4F10C04EA
:10077000C4F1200500FA04F320FA05F001FA04F2AE
:1007800040EA020001F0004110EBD37041F100019A
:100790005EEA430E08BF20EAD37070BDC4F12005A5
:1007A00000FA05F24EEA020E20FA04F301FA05F20D
:1007B00043EA020321FA04F001F0004121FA04F2B5
:1007C00020EA020000EBD3705EEA430E08BF20EA85
:1007D000D37070BD94F0000F0FD101F000464000BF
:1007E00041EB010111F4801F08BF013CF7D041EA41
:1007F000060195F0000F18BF704703F00046520045
:1008000043EB030313F4801F08BF013DF7D043EA15
:100810000603704794EA0C0F0CEA135518BF95EACB
:100820000C0F0CD050EA410618BF52EA4306D1D152
:1008300081EA030101F000414FF0000070BD50EA71
:10084000410606BF1046194652EA430619D094EAFB
:100850000C0F02D150EA013613D195EA0C0F05D1E5
:1008600052EA03361CBF104619460AD181EA030139
:1008700001F0004141F0FE4141F470014FF00000F1
:1008800070BD41F0FE4141F4780170BD70B54FF08C
:10089000FF0C4CF4E06C1CEA11541DBF1CEA13550C
:1008A00094EA0C0F95EA0C0F00F0A7F8A4EB0504EE
:1008B00081EA030E52EA03354FEA013100F08880E5
:1008C0004FEA03334FF0805545EA131343EA1263AE
:1008D0004FEA022245EA111545EA10654FEA002663
:1008E0000EF000419D4208BF964244F1FD0404F51C
:1008F000407402D25B084FEA3202B61A65EB030578
:100900005B084FEA32024FF480104FF4002CB6EB34
:10091000020E75EB030E22BFB61A754640EA0C00B4
:100920005B084FEA3202B6EB020E75EB030E22BFF4
:10093000B61A754640EA5C005B084FEA3202B6EB35
:10094000020E75EB030E22BFB61A754640EA9C00F4
:100950005B084FEA3202B6EB020E75EB030E22BFC4
:10096000B61A754640EADC0055EA060E18D04FEA82
:10097000051545EA16754FEA06164FEAC30343EA22
:1009800052734FEAC2025FEA1C1CC0D111F4801FEF
:100990000BD141EA00014FF000004FF0004CB6E7E8
:1009A00011F4801F04BF01430020B4F1FD0C88BF87
:1009B000BCF5E06F3FF6AFAEB5EB030C04BFB6EB92
:1009C000020C5FEA500C50F1000041EB045170BD85
:1009D0000EF0004E4EEA113114EB5C04C2BFD4EBB2
:1009E0000C0541EA045170BD41F480114FF0000E36
:1009F000013C90E645EA060E8DE60CEA135594EAB2
:100A00000C0F08BF95EA0C0F3FF43BAF94EA0C0FB4
:100A10000AD150EA01347FF434AF95EA0C0F7FF429
:100A200025AF104619462CE795EA0C0F06D152EA7D
:100A300003353FF4FDAE1046194622E750EA410661
:100A400018BF52EA43067FF4C5AE50EA41047FF472
:100A50000DAF52EA43057FF4EBAE12E74A0011D224
:100A600012F5001211D20DD56FF47873B3EB625208
:100A70000ED44FEAC12343F0004343EA505323FA14
:100A800002F070474FF00000704750EA013002D189
:100A90004FF0FF3070474FF0000070477BB972B9DC
:100AA0000029BEBF00204FF0004106E008BF00282B
:100AB0001CBF6FF000414FF0FF3000F0BBB9ADF14B
:100AC000080C6DE904CE002909DB002B1ADB00F0CD
:100AD0004DF8DDF804E0DDE9022304B07047404240
:100AE00061EB4101002B1BDB00F040F8DDF804E076
:100AF000DDE9022304B0404261EB4101524263EB65
:100B000043037047524263EB430300F02FF8DDF8D4
:100B100004E0DDE9022304B0404261EB410170478B
:100B2000524263EB430300F021F8DDF804E0DDE915
:100B3000022304B0524263EB4303704753B94AB9EE
:100B4000002908BF00281CBF4FF0FF314FF0FF30D5
:100B500000F070B9ADF1080C6DE904CE00F006F8B4
:100B6000DDF804E0DDE9022304B070472DE9F04729
:100B7000089E0D4604460F46002B4AD18A429446F1
:100B800065D9B2FA82F343B102FA03FCC3F1200241
:100B90009F4020FA02F217439C404FEA1C4E1FFA76
:100BA0008CF5B7FBFEF1220C0EFB117742EA0742EF
:100BB00001FB05F090420AD91CEB020201F1FF375C
:100BC00080F01C81904240F2198102396244121A6D
:100BD000A4B2B2FBFEF00EFB102244EA024400FB7A
:100BE00005F5A5420AD91CEB040400F1FF3280F0A0
:100BF0000781A54240F204816444023840EA014082
:100C0000641B00211EB1DC400023C6E90043BDE89F
:100C1000F0878B4208D9002E00F0ED800021C6E954
:100C200000050846BDE8F087B3FA83F1002949D1F1
:100C3000AB4202D3824200F2F880841A65EB0302D1
:100C400001201746002EE2D0C6E90047DFE702B9CF
:100C5000FFDEB2FA82F3002B40F090808A1A4FEA4E
:100C60001C471FFA8CFE0121B2FBF7F507FB15208C
:100C7000220C42EA00420EFB05F0904208D91CEB20
:100C8000020205F1FF3802D2904200F2CB804546C5
:100C9000121AA4B2B2FBF7F007FB102244EA024496
:100CA0000EFB00FEA64508D91CEB040400F1FF3240
:100CB00002D2A64500F2BB801046A4EB0E0440EA27
:100CC00005409FE7C1F120078B4022FA07FC4CEA60
:100CD000030C05FA01F420FA07F3FD404FEA1C4922
:100CE0002343B5FBF9F81FFA8CFE09FB18551C0CC1
:100CF00044EA054408FB0EF5A54202FA01F200FAA7
:100D000001F00BD91CEB040408F1FF3A80F0888055
:100D1000A54240F28580A8F102086444641B9DB29C
:100D2000B4FBF9F309FB134445EA044403FB0EFE4C
:100D3000A64508D91CEB040403F1FF356CD2A64587
:100D40006AD9023B644443EA0843A3FB0295A4EB3F
:100D50000E04AC42C846AE4656D353D056B1B0EBA3
:100D6000080264EB0E0404FA07F7CA40CC401743AC
:100D7000C6E9007418460021BDE8F087C3F12001E0
:100D800002FA03FC20FA01F225FA01F19D402A4300
:100D90004FEA1C471FFA8CFEB1FBF7F007FB10155A
:100DA000110C41EA054100FB0EF58D4204FA03F4F3
:100DB00008D91CEB010100F1FF382FD28D422DD94B
:100DC00002386144491B92B2B1FBF7F507FB1511DC
:100DD00042EA014205FB0EF1914208D91CEB0202E6
:100DE00005F1FF3816D2914214D9023D6244521ADD
:100DF00045EA004138E73146304608E73946E6E63D
:100E00001046FBE64845A9D2B9EB020865EB0C0E8B
:100E1000013BA3E74546EAE72B4694E74046D1E786
:100E2000D0467BE7023D624432E708460AE7644465
:100E3000023842E7704700BF10F8012B11F8013B60
:100E4000012A28BF9A42F7D0D01A7047034613F8F8
:100E5000012B002AFBD1181A0138704708B5026827
:100E6000034B9A4200D008BD01F086F9FBE700BFB2
:100E7000002C014072B6FEE700B595B03822002183
:100E800006A806F080FE00200190029003900490D6
:100E9000059002F009F9092306934FF48033079374
:100EA00001230B9302230D9303220E920F935022E2
:100EB000109211931293139306A801F0AFF990B911
:100EC0000F230193032302930023039304930593B9
:100ED00004210DEB010001F059FC30B901F09AFD3D
:100EE00015B05DF804FBFFF7C5FFFFF7C3FF000077
:100EF00008B501F031F9FFF7BFFF00F043F800F04B
:100F0000AFF900F025FA00F0AFFA00F0C3FA00F0F4
:100F1000E9FA00F07DFB00F0F7FB154806F088F9D0
:100F20003C21144803F01DF80A2001F037F9124C57
:100F3000204605F09BFF114805F0A5FF214610480B
:100F400000F066FE08B1FFF795FF0B490C4805F06D
:100F5000ADFF0A2001F022F906F032F80A2001F074
:100F60001DF905F099FB00F047F905F0A7FBFEE736
:100F70009801002000040020800100205C01002076
:100F800078020020F0B58BB00024059406940794F5
:100F9000089409943D4BDA6C42F02002DA64DA6C72
:100FA00002F020020092009ADA6C42F00402DA6445
:100FB000DA6C02F004020192019ADA6C42F001024A
:100FC000DA64DA6C02F001020292029ADA6C42F000
:100FD0000202DA64DA6C02F002020392039ADA6C1B
:100FE00042F00802DA64DB6C03F008030493049B0C
:100FF000224649F610314FF0904001F0D2FF244EC6
:1010000022462021304601F0CCFF224F2246042107
:10101000384601F0C6FF0125059503230693079482
:1010200005A9304601F0CCFE4FF4437305930694B6
:10103000079405A9304601F0C3FE49F61033059325
:1010400006950794089405A94FF0904001F0B8FE6A
:101050002023059306950794089405A9304601F0CE
:10106000AFFE4FF47C4305930694079405A90A4804
:1010700001F0A6FE0423059306950794089405A99C
:10108000384601F09DFE0BB0F0BD00BF00100240DD
:1010900000080048000C00480004004870B596B0F5
:1010A000364B0193364B0093364B374A3749012074
:1010B00007F01EFE11A807F087FD354B1193354B45
:1010C0001293354B1393354B149311A807F08AFDF7
:1010D000334C02A807F0A4FDA6460DF1080CBCE8AD
:1010E0000F00AEE80F00DCF80030CEF8003007F05B
:1010F000C5FA2C4D28600021284607F0BDFB04F1FD
:101100000C0393E803008DE8030094E80E002846E2
:1011100007F0B6FA284607F0B7FB01460B2007F0A8
:10112000FDFD214E00942B4600221146304607F06B
:101130009FFC01221D490EA806F0C2FC1C4C334640
:101140001C4A0EA9204607F0C7FC01221A4909A82B
:1011500006F0B6FC08F0F6FE024609AB2146174839
:1011600007F0F6FC05E0164802F070F9642004F080
:10117000FBFD144B1B68182BF5D9F7E7D97700084E
:101180006D77000869770008597700087802002019
:10119000AD750008CD750008ED7500082D760008C6
:1011A0001002002028020020440200202C1F010809
:1011B0003C020020642801083C1F01083402002082
:1011C00028030020DCE2002010B5002405490C6053
:1011D0000022054807F028FC0134012005F0E8FA58
:1011E000F4E700BF380200203402002008B542F2C4
:1011F000107005F0DDFAFAE708B50E4A002101206B
:1012000005F0E4FA0C4B18600C4A00210C4805F07C
:1012100071FA0C4B18600C4A00210C4805F06AFA70
:101220000B4B18600B4A00210B4805F063FA0B4B7F
:10123000186008BD881F01080C020020981F0108D3
:101240009D10000824020020BC1F0108C9110008DD
:101250002C020020E01F0108ED11000830020020E0
:1012600010B51148114B0360012242604FF44073E6
:1012700083600023C3600374427483744261182145
:1012800081613724C46101624262042181620524C4
:10129000C462016342638363C36300F0CFFB00B9A0
:1012A00010BDFFF7E7FDFBE7780200200064004077
:1012B00010B59CB0044600211791189119911A910C
:1012C0001B91542202A806F05EFC22681D4B9A4234
:1012D00001D01CB010BD4FF4805302934FF0007347
:1012E000109302A801F0B0FB48BB174B9A6D42F077
:1012F00000729A659A6D02F000720092009ADA6CA0
:1013000042F00202DA64DB6C03F002030193019BFA
:101310004FF44073179302231893002419941A94DE
:1013200009231B9317A9094801F04AFD224605210C
:10133000152001F059FF152001F08EFFC9E7FFF7D6
:1013400099FDD2E70064004000100240000400480C
:1013500008B51548154B0360A3F17663A3F57E230A
:10136000A3F214634360002383600122C26003611F
:1013700043618361C361036201F07CFF50B90021C6
:10138000094801F0D5FF40B90021074801F0FEFFF0
:1013900030B908BDFFF76EFDF1E7FFF76BFDF3E72E
:1013A000FFF768FDF5E700BFDC0200200084004085
:1013B00070B59EB00446002119911A911B911C91A1
:1013C0001D91542204A806F0DEFB2268224B9A42AB
:1013D00001D01EB070BD4FF40033049304A801F097
:1013E00033FB002834D11D4CE36C43F00403E36469
:1013F000E36C03F004030193019BE36C43F00203ED
:10140000E364E36C03F002030293029B402319930D
:1014100012261A9600251B951C9508231D9319A9C1
:101420000F4801F0CDFC802319931A961B951C954B
:1014300003231D9319A90B4801F0C2FCE36D43F08F
:101440000203E365E36D03F002030393039BC0E72C
:10145000FFF710FDC7E700BF008400400010024006
:10146000000800480004004808B50848084B03601D
:101470000323436040F6FF73C360836001F0B2FF53
:1014800000B908BDFFF7F6FCFBE700BF280300200A
:101490000030004008B51148114B03604FF48273CF
:1014A0004360002383604FF4E062C2600222026165
:1014B000012242614FF4007282612822C2610362FC
:1014C000436283620722C2620363436302F0D7F878
:1014D00000B908BDFFF7CEFCFBE700BF38030020D2
:1014E0000030014008B51048104B03604FF4827380
:1014F0004360002383604FF47062C2600361012285
:1015000042614FF4007282612022C2610362436231
:1015100083620722C2620363436302F0B0F800B93A
:1015200008BDFFF7A7FCFBE79C030020003C004040
:1015300030B58BB000230593069307930893099366
:1015400003682F4A934204D02E4A934236D00BB000
:1015500030BD2D4B1A6E42F480521A661A6E02F498
:1015600080520192019ADA6C42F00102DA64DB6C7B
:1015700003F001030293029B2023059302250695A5
:10158000012307930524099405A94FF0904001F029
:1015900017FCC02305930695002507950895099427
:1015A00005A94FF0904001F00BFC2A46214623206C
:1015B00001F01AFE232001F04FFEC8E7124B9A6D8E
:1015C00042F400429A659A6D02F400420392039A33
:1015D000DA6C42F00402DA64DB6C03F00403049377
:1015E000049B4FF4E05305930223069301230793D2
:1015F0000623099305A9054801F0E2FBA7E700BF10
:1016000000300140003C004000100240000800484B
:1016100000B58DB02422002103A806F0B4FA0023FF
:101620000093019302931248124A02604360836060
:101630004FF6FF72C260036143618361012303932C
:101640000593099303A902F025FC58B900230093E0
:10165000019302936946064802F0EAFC28B90DB0EE
:101660005DF804FBFFF706FCF0E7FFF703FCF6E785
:10167000000400200034014010B588B0002303931B
:10168000049305930693079302681C4B9A4201D07A
:1016900008B010BD03F55C431A6E42F400521A669E
:1016A0001A6E02F400520092009ADA6C42F00402C0
:1016B000DA64DA6C02F004020192019ADA6C42F008
:1016C0000202DA64DB6C03F002030293029B8023C4
:1016D0000393022404940423079303A9084801F008
:1016E0006FFB402303930494002305930693052383
:1016F000079303A9034801F063FBC9E700340140E5
:10170000000800480004004808B51748174B03605C
:101710004FF4E133436000238360C36003610C2214
:1017200042618361C36103624362836203F091F9A2
:1017300070B900210C4803F007FA60B900210A488B
:1017400003F027FA50B9084803F0DFF948B908BD9B
:10175000FFF790FBEDE7FFF78DFBEFE7FFF78AFB65
:10176000F1E7FFF787FBF2E74C040020004400405C
:1017700010B59CB0044600211791189119911A9147
:101780001B91542202A806F0FEF922681B4B9A42D4
:1017900001D01CB010BD0223029302A801F054F93D
:1017A00048BB174B9A6D42F400329A659A6D02F469
:1017B00000320092009ADA6C42F00102DA64DB6CCB
:1017C00003F001030193019B0C2317930223189349
:1017D000002419941A9407231B9317A94FF09040E3
:1017E00001F0EEFA22460521262001F0FDFC26201C
:1017F00001F032FDCDE7FFF73DFBD2E700440040AA
:101800000010024008B501F00FF9FEE7FEE7FEE721
:10181000FEE7FEE77047000008B5024800F0D0FB85
:1018200008BD00BF7802002008B5024802F082F926
:1018300008BD00BFDC04002008B5024802F096F89D
:1018400008BD00BF3803002008B5024802F098FC2C
:1018500008BD00BF4C04002000B583B00E4B1A6ECB
:1018600042F001021A661A6E02F001020092009A1A
:101870009A6D42F080529A659B6D03F080530193FC
:10188000019B00220F216FF0010001F0ADFC01F07F
:1018900091FC03B05DF804FB0010024030B589B044
:1018A00004461D4B1A6E42F400621A661B6E03F466
:1018B00000630193019B02A903A801F08DF801F0D8
:1018C00079F8164AA2FB00239B0C013B1448154AE9
:1018D000026040F2E732C26043600023036183602C
:1018E00002F0A8FA054610B1284609B030BD0C48F0
:1018F00002F0D2F805460028F6D1192001F0ACFC20
:101900000F2C01D90125EFE700222146192001F013
:101910006BFC054B1C60E7E70010024083DE1B43B5
:10192000DC040020002C01400400002010B40268F8
:101930001D4B9A4228D01D491D4B9A4226D0016466
:10194000D2F8803023F4F813446B43EA0443C2F81E
:10195000803001F1700343640268D2F8803023F0D4
:101960007063846B43EA0463C2F8803001F1B00312
:10197000836401F5C473C36401F51873036501F54D
:101980001E7343650B4607E00A49D5E701F5D461AC
:10199000D5E7002243F8042B01F554729A42F8D897
:1019A0005DF8044B704700BF0068004000A4004091
:1019B000006C004050A7004070B54C68E4B90D6958
:1019C0008C6825430C6845EA8445CC690E6A44EA74
:1019D00006648E6934434E693443CE683443406DA7
:1019E00003EBC30300EBC30E40F83350CEF80440C2
:1019F0000EF1080E002019E00C698D6825430C6873
:101A0000254345F08045E0E702EB000C9CF80340DD
:101A10009CF802301B0443EA04639CF8014043EA4B
:101A20000423145C23434EF8043B0430CB89024C5E
:101A3000E35C8342E8D870BD04200108002800F070
:101A4000E38038B5044690F85C30D3B122689369DE
:101A500023F01003936100F09BFB054623689A690D
:101A600012F0080F12D000F093FB401B0A28F5D9A2
:101A7000236E43F001032366032384F85C300120C6
:101A800038BD80F85D30FFF713FCDFE79A6942F05C
:101A900001029A6100F07CFB054623689A6912F006
:101AA000010F0DD100F074FB401B0A28F5D9236EFD
:101AB00043F001032366032384F85C300120DFE751
:101AC0009A6942F002029A612268504B9A4242D0CF
:101AD000237C012B45D02268936943F04003936136
:101AE000637C012B43D02268936923F48043936184
:101AF000A37C012B41D02268936943F48053936106
:101B00002268936923F44073A1680B4393612268B0
:101B1000936923F0A40393612268136923F01003EF
:101B20001361E368012B2ED0002B31D0022B54D04F
:101B30002268936943F0800393612268136943F03C
:101B400010031361E368032B22D12268936943F0E9
:101B5000200393611CE06268A3F58063C3F800254D
:101B6000B6E72268936923F040039361B8E72268DF
:101B7000936943F480439361BAE72268936923F43D
:101B800080539361BCE72268936943F00403936137
:101B9000A3695A1EE369013B1B0243EA4263226ABE
:101BA000013A13436269013A216843EA0243CB6177
:101BB000A368B3F5407F16D02268D2F8C030E16B3D
:101BC0000B43C2F8C0302046FFF7B0FE0020A065EE
:101BD0002066012384F85C3052E72268936943F061
:101BE00020039361D4E7A36A013BE26A013A43EA26
:101BF0000223226B013A43EA0213626A013A216826
:101C000043EA0243CB60D7E70120704700640040FD
:101C100090F85C30013BDBB2012B05D9036E43F039
:101C200002030366012070470B68A3B110B4CA68B1
:101C30000B6943EA42724B698C6843EA8473406CD7
:101C4000496800EBC10C40F83120CCF8043000208A
:101C50005DF8044B70478A68CB68DB0643EA827301
:101C60000A6943EA02434A691343026C496842F82D
:101C700021300020704790F85CC05FFA8CFCBCF10A
:101C8000010F05D0036E43F0040303660120704783
:101C900010B40468D4F8800020F03F00920042EABB
:101CA000011242EA4303019A1A430243C4F8802016
:101CB00000205DF8044B704790F85C30DBB2012BDC
:101CC00005D0036E43F004030366012070470368E8
:101CD00042EA01229A640020704790F85C30DBB23F
:101CE000012B05D0036E43F0040303660120704707
:101CF0000268D36843F40003D3600020704790F873
:101D00005C30DBB2012B05D0036E43F004030366A5
:101D100001207047022380F85C300268936923F049
:101D200001039361002303661846704738B50446E3
:101D300090F85C30DBB2022B1BD10368D3F8C400EF
:101D400010F4001F05D0236E43F4007323660120B6
:101D500014E0D3F8C450C5F301452B462046FFF7E5
:101D60002BFE22680123AB40C2F8CC30A3650020D3
:101D700004E0036E43F008030366012038BD000051
:101D800070B590F85C40E4B2022C7DD140290BD0B4
:101D90000468D4F8985015F00F0F1BD1036E43F46C
:101DA00080730366012074E00468D4F8905015F045
:101DB0000F0F05D1036E43F480730366012068E0C2
:101DC000D4F89060C6F30126846C06EBC60504EBDC
:101DD000C50C08E0D4F89860C6F30126C46C06EB85
:101DE000C60504EBC50CDCF8004004F080445460E8
:101DF00074BBDCF80040C4F38A441460DCF8004093
:101E000004F000549460DCF8004004F000441461D5
:101E1000BCF80440D461DCF8044004F47024D460BD
:101E2000DCF8044004F480145461DCF8044004F449
:101E3000001494619CF8074004F07F041462DCF8FD
:101E40000440E40F54620CF1080E4FF0000C0BE05C
:101E5000DCF8004024F060441460CFE71EF80C402A
:101E600003F80C400CF1010CD4890A4D2C5D64453B
:101E7000F4D8402904D00368C3F89C60002008E02F
:101E80000368C3F89460F9E7036E43F00803036640
:101E9000012070BD042001080368D3F8C800084081
:101EA00000D00120704790F85C30013BDBB2012B81
:101EB00005D9036E43F0020303660120704770B436
:101EC0000468A36D11F0070602D013F0010F23D0B0
:101ED00011F0380F02D013F0020F1DD011F4E07F83
:101EE00002D013F0040F17D011F4F05F02D013F0FA
:101EF000080F11D011F4604F02D013F0100F0BD067
:101F000011F4403F02D013F0200F05D011F47C0FE4
:101F100006D013F0400F03D1E56D45F00105E565EE
:101F200016B113F0010F23D111F0380F02D013F0C6
:101F3000020F1DD111F4E07F02D013F0040F17D16E
:101F400011F4F05F02D013F0080F11D111F4604FBB
:101F500002D013F0100F0BD111F4403F02D013F058
:101F6000200F05D111F47C0F07D013F0400F04D0DF
:101F70000468E36D43F00203E36511F0800F05D0C0
:101F80000468D4F8DC301343C4F8DC3011F4807FEB
:101F900005D00468D4F8E0301343C4F8E030026898
:101FA000536D0B435365002070BC704770477047FA
:101FB0007047704770477047704770477047704769
:101FC0002DE9F843044603681A6D02F4E0595A6D8E
:101FD00009EA02091A6D02F007085A6D08EA0208B8
:101FE0001F6D07F038075A6D17401D6D05F4710518
:101FF0005A6D15401E6D06F460265A6D16401A6D16
:1020000012F0400F03D05A6D12F0400F51D12368E7
:102010001A6D12F4807F03D05A6D12F4807F4DD177
:10202000B9F1000F56D1B8F1000F5BD1002F61D18B
:1020300023681A6D12F4007F03D05A6D12F4007FEA
:102040005FD123681A6D12F0800F03D05A6D12F021
:10205000800F5DD123681A6D12F4005F03D05A6DB2
:1020600012F4005F5FD123681A6D12F4004F03D0A1
:102070005A6D12F4004F5DD123681A6D12F4804F2F
:102080000AD05A6D12F4804F06D04FF480421A6580
:10209000236E43F080032366002E52D125B12368BE
:1020A0001D65236E2B432366236E002B50D1BDE8A4
:1020B000F88340221A65FFF780FFA8E7D3F8D8100D
:1020C000D3F8E0204FF48070186511402046FFF7E8
:1020D00071FFA5E72368C3F8509049462046FFF7F3
:1020E00065FFA0E72368C3F850804146204605F00D
:1020F000BDFB9BE723681F6539462046FFF757FF66
:1021000096E74FF400721A652046FFF751FF98E7F3
:10211000D3F8D410D3F8DC20802018651140204675
:10212000FFF747FF96E74FF400521A652046FFF786
:1021300042FF98E74FF400421A652046FFF73CFF44
:102140009AE723681E6531462046FFF738FFA5E76A
:102150002046FFF733FFAAE710B5032001F032F85D
:102160000F20FFF79BFB10B10124204610BD044651
:10217000FFF772FBF9E70000034A13680349096897
:102180000B441360704700BF2805002000000020AA
:10219000014B1868704700BF2805002038B5044679
:1021A000FFF7F6FF0546B4F1FF3F02D0044B1B6872
:1021B0001C44FFF7EDFF401BA042FAD338BD00BF1F
:1021C00000000020124BDA6802F00302DB68C3F360
:1021D00003130133032A11D00E48B0FBF3F00C4B6C
:1021E000DB68C3F3062303FB00F0094BDB68C3F392
:1021F000416301335B00B0FBF3F070470648B0FB6E
:10220000F3F0034BDB68C3F3062303FB00F0ECE7BA
:10221000001002400024F40000127A00002800F0B0
:10222000548270B582B00446036813F0010F37D0B2
:10223000A44A936803F00C03D26802F003020C2B4B
:1022400023D0082B23D06368B3F5803F4ED0B3F57D
:10225000A02F51D09B4B1A6822F480321A601A6862
:1022600022F480221A606368002B52D0FFF790FF9F
:102270000546944B1B6813F4003F11D1FFF788FF0C
:10228000401B6428F5D9032028E2032AD9D18D4BBD
:102290001B6813F4003F03D06368002B00F0178223
:1022A000236813F0020F5DD0864A936803F00C0395
:1022B000D26802F003020C2B3AD0042B3AD0E36828
:1022C000002B75D07F4A136843F480731360FFF7C7
:1022D0005FFF05467B4B1B6813F4806F5FD1FFF7F0
:1022E00057FF401B0228F5D90320F7E1754A136810
:1022F00043F480331360B6E703F18043A3F53C3326
:102300001A6842F480221A601A6842F480321A6015
:10231000A9E7FFF73DFF05466A4B1B6813F4003F32
:10232000BED0FFF735FF401B6428F5D90320D5E167
:10233000022AC2D1634B1B6813F4806F03D0E36899
:10234000002B00F0C6815F4A536823F0FE432169E9
:1023500043EA016353605C4B1868FFF79FFA00285B
:1023600040F0B981236813F0080F4CD063699BB328
:10237000544AD2F8943043F00103C2F89430FFF786
:1023800007FF05464F4BD3F8943013F0020F3AD1B4
:10239000FFF7FEFE401B0228F4D903209EE1494AC4
:1023A000536823F0FE43216943EA01635360D9E790
:1023B000444A136823F480731360FFF7E9FE05466F
:1023C000404B1B6813F4806FCCD0FFF7E1FE401B3D
:1023D0000228F5D9032081E13A4AD2F8943023F05B
:1023E0000103C2F89430FFF7D3FE0546354BD3F80E
:1023F000943013F0020F06D0FFF7CAFE401B0228EC
:10240000F4D903206AE1236813F0040F00F08180FF
:102410002C4B9B6D13F0805F36D12A4B9A6D42F0A6
:1024200080529A659B6D03F080530193019B0125B7
:10243000264B1B6813F4807F28D0A368012B39D06A
:10244000052B45D01F4BD3F8902022F00102C3F892
:102450009020D3F8902022F00402C3F89020A368C3
:10246000002B43D0FFF794FE0646164BD3F890306E
:1024700013F0020F4CD1FFF78BFE801B41F2883323
:102480009842F2D9032029E10025D1E70F4A1368C9
:1024900043F480731360FFF77BFE06460B4B1B680B
:1024A00013F4807FC9D1FFF773FE801B0228F5D992
:1024B000032013E1034AD2F8903043F00103C2F83D
:1024C0009030CCE700100240040000200070004073
:1024D0008A4BD3F8902042F00402C3F89020D3F83E
:1024E000902042F00102C3F89020B8E7FFF750FEB9
:1024F0000646824BD3F8903013F0020F08D0FFF756
:1025000047FE801B41F288339842F2D90320E5E070
:10251000E5B9236813F0200F35D0A369E3B1774AFA
:10252000D2F8983043F00103C2F89830FFF730FE3C
:102530000546724BD3F8983013F0020F23D1FFF702
:1025400027FE401B0228F4D90320C7E06B4A936D95
:1025500023F080539365DCE7684AD2F8983023F083
:102560000103C2F89830FFF713FE0546634BD3F81A
:10257000983013F0020F06D0FFF70AFE401B022826
:10258000F4D90320AAE0E369002B00F0A6805B4A9F
:10259000926802F00C020C2A69D0022B1DD0574B16
:1025A0001A6822F080721A60DA6822F00302DA6098
:1025B000DA6822F0887222F48032DA60FFF7E8FDF0
:1025C00004464E4B1B6813F0007F4ED0FFF7E0FD32
:1025D000001B0228F5D9032080E0484A136823F045
:1025E00080731360FFF7D4FD0546444B1B6813F05E
:1025F000007F06D0FFF7CCFD401B0228F5D9032051
:102600006CE03E4AD3683E491940236A606A01384B
:1026100043EA0013A06A43EA0023206B4008013814
:1026200043EA4053606B4008013843EA4063E06A84
:1026300043EAC0631943D160136843F080731360A9
:10264000D36843F08073D360FFF7A2FD04462B4BA1
:102650001B6813F0007F06D1FFF79AFD001B0228CC
:10266000F5D903203AE0002038E0002036E0012BC5
:1026700036D0224BDB6803F00301226A914231D14C
:1026800003F0F002616A0139B2EB011F2CD103F4AF
:10269000FE42A16AB2EB012F28D103F07842E16A31
:1026A000B2EBC16F24D103F4C001226B5208013A8E
:1026B000B1EB425F1ED103F0C063626B5208013A76
:1026C000B3EB426F18D1002008E0012070470120D1
:1026D00004E0012002E0012000E0002002B070BD13
:1026E0000120FBE70120F9E70120F7E70120F5E7EA
:1026F0000120F3E70120F1E70120EFE7001002409D
:102700000C809F011E4B9B6803F00C03042B33D0FD
:102710001B4B9B6803F00C03082B2FD0184B9B68B6
:1027200003F00C030C2B01D000207047144BDA6827
:1027300002F00302DB68C3F303130133032A11D051
:102740001048B0FBF3F00E4BDB68C3F3062303FB2A
:1027500000F00B4BDB68C3F3416301335B00B0FB5C
:10276000F3F070470848B0FBF3F0054BDB68C3F3A8
:10277000062303FB00F0ECE702487047024870476D
:10278000001002400024F40000127A00002800F03B
:10279000E680F8B50C460546744B1B6803F00F0342
:1027A0008B420BD2714A136823F00F030B43136063
:1027B000136803F00F038B4240F0D3802E6816F0AD
:1027C00001065FD06B68032B2FD0022B4DD0684BD6
:1027D0001B6813F4806F00F0C680FFF793FF654B12
:1027E00098424DD9624A936823F0F00343F0800386
:1027F000936080265E4A936823F0030369680B4365
:102800009360FFF7C5FC0746594B9B6803F00C0328
:102810006A68B3EB820F35D0FFF7BAFCC01B41F2F8
:1028200088339842F0D9032078E0514B1B6813F0AD
:10283000007F01D1012071E0FFF7C4FC4D4B9842AD
:102840001AD94B4B9B6813F0F00F05D02E6816F089
:102850000206CFD0AB688BB9454A936823F0F003EA
:1028600043F0800393608026C4E7414B1B6813F458
:10287000003FB2D1012051E00026BBE70026B9E7B6
:102880000026B7E72B6813F0020F48D013F0040FAF
:1028900004D0374A936843F4E06393602B6813F0E5
:1028A000080F06D0324A936823F47C5343F4E06364
:1028B00093602F4A936823F0F003A9680B43936059
:1028C0002A4B1B6803F00F03A34230D82B6813F088
:1028D000040F06D0264A936823F4E063E9680B43AB
:1028E00093602B6813F0080F07D0214A936823F4F4
:1028F0006053296943EAC1039360FFF703FF1C4B50
:102900009B68C3F303131C4AD35C03F01F03D84036
:102910001A4B18601A4B1868FEF7C0FFF8BD802EDE
:10292000CED1134A936823F0F0039360C8E70F4AAF
:10293000136823F00F0323431360FFF729FC0646B7
:102940000A4B1B6803F00F03A342BFD0FFF720FC24
:10295000801B41F288339842F2D90320DEE7012040
:1029600070470120DAE70120D8E700BF00200240CD
:102970000010024000B4C4043C20010808000020FC
:1029800004000020014B1868704700BF08000020B9
:1029900008B5FFF7F7FF054B9B68C3F30223044A12
:1029A000D35C03F01F03D84008BD00BF00100240F5
:1029B0004C20010808B5FFF7E5FF054B9B68C3F302
:1029C000C223044AD35C03F01F03D84008BD00BFF4
:1029D000001002404C2001080F2303600B4B9A6843
:1029E00002F0030242609A6802F0F00282609A6884
:1029F00002F4E062C2609B68DB0803F4E0630361F9
:102A0000034B1B6803F00F030B607047001002407C
:102A100000200240024A136843F400231360704709
:102A2000001002407047000008B5064BDB6913F444
:102A3000807F00D108BDFFF7F5FF024B4FF4807295
:102A40001A62F7E700100240F0B583B0044603684D
:102A500013F4002F6ED0354B9B6D13F0805F1ED1A9
:102A6000324B9A6D42F080529A659B6D03F0805311
:102A70000193019B01262E4A136843F4807313606F
:102A8000FFF786FB05462A4B1B6813F4807F08D1AD
:102A9000FFF77EFB401B0228F5D9032502E0002644
:102AA000E9E7002545BB214BD3F8903013F4407380
:102AB00015D0226D9A4212D01C4AD2F8903023F4DD
:102AC0004073D2F8901041F48031C2F89010D2F8DF
:102AD000901021F48031C2F89010C2F8903013F0B9
:102AE000010F10D145B9114AD2F8903023F4407348
:102AF000216D0B43C2F89030EEB10C4A936D23F078
:102B00008053936517E0FFF743FB0746074BD3F865
:102B1000903013F0020FE5D1FFF73AFBC01B41F2F2
:102B200088339842F2D90325DCE700BF0010024049
:102B3000007000400025236813F0010F08D09F4A61
:102B4000D2F8883023F0030361680B43C2F8883061
:102B5000236813F0020F08D0984AD2F8883023F087
:102B60000C03A1680B43C2F88830236813F0040FEC
:102B700008D0924AD2F8883023F03003E1680B4342
:102B8000C2F88830236813F0080F08D08B4AD2F8B7
:102B9000883023F0C00321690B43C2F888302368D2
:102BA00013F0100F08D0854AD2F8883023F4407310
:102BB00061690B43C2F88830236813F0200F08D0F6
:102BC0007E4AD2F8883023F44063A1690B43C2F8EF
:102BD0008830236813F0400F08D0784AD2F8883044
:102BE00023F44053E1690B43C2F88830236813F0A3
:102BF000800F08D0714AD2F8883023F44043216A0C
:102C00000B43C2F88830236813F4807F08D06B4AE6
:102C1000D2F8883023F44033616A0B43C2F888301D
:102C2000236813F4003F08D0644AD2F89C3023F0A4
:102C30000303A16A0B43C2F89C30236813F4007F9E
:102C400008D05E4AD2F8883023F44023E16A0B436F
:102C5000C2F88830236813F4806F0CD0574AD2F83A
:102C6000883023F44013216B0B43C2F88830236B68
:102C7000B3F5801F79D0236813F4006F0CD04F4A4E
:102C8000D2F8883023F44003616B0B43C2F88830DC
:102C9000636BB3F5800F6DD0236813F4805F0CD0A5
:102CA000464AD2F8883023F04073A16B0B43C2F838
:102CB0008830A36BB3F1807F61D0236813F4005F89
:102CC0000CD03E4AD2F8883023F04063E16B0B43CE
:102CD000C2F88830E36BB3F1006F55D0236813F46A
:102CE000804F0CD0354AD2F8883023F04063216CF5
:102CF0000B43C2F88830236CB3F1006F49D02368CE
:102D000013F4004F0CD02D4AD2F8883023F04053F2
:102D1000616C0B43C2F88830636CB3F1805F3DD0C7
:102D2000236813F4803F0CD0244AD2F8883023F073
:102D30004043A16C0B43C2F88830A36CB3F1804FC1
:102D400031D0236813F4802F0CD01C4AD2F89C3069
:102D500023F44013E16C0B43C2F89C30E36CB3F5F1
:102D6000001F25D0284603B0F0BDD36843F480137C
:102D7000D36080E7D36843F48013D3608CE7D368D3
:102D800043F48013D36098E7D36843F48013D3608F
:102D9000A4E7D36843F48013D360B0E7D36843F467
:102DA0008033D360BCE7D36843F48033D360C8E793
:102DB000D36843F48013D360D4E700BF001002400F
:102DC000F0B583B0002362E085685E000324B44060
:102DD00025EA0405CC68B4402C438460456825EAA4
:102DE0000C054C68C4F300149C402C4344605FE025
:102DF000DD08083550F8254003F0070C4FEA8C0C2D
:102E00004FF00F0E0EFA0CFE24EA0E0E0C6904FAB7
:102E10000CF444EA0E0440F8254060E0052400E08C
:102E2000002404FA0EF42C430CF1020C554D45F825
:102E30002C40554CA568D44325EA02064F6817F488
:102E4000801F01D042EA05064F4DAE60ED6804EAEE
:102E500005064F6817F4001F01D042EA05064A4DE7
:102E6000EE606D6804EA05064F6817F4003F01D074
:102E700042EA0506444D6E602D682C404E6816F4FB
:102E8000803F01D042EA05043F4A146001330A68DA
:102E900032FA03F474D04FF0010C0CFA03FC1CEA74
:102EA0000202F3D04C6804F00304013C012C8BD9DE
:102EB0004C6804F00304032C0CD0C4685D004FF090
:102EC000030C0CFA05FC24EA0C0C8C68AC4044EAB8
:102ED0000C04C4604C6804F00304022C88D004681D
:102EE0004FEA430E4FF0030C0CFA0EFC24EA0C0CD4
:102EF0004C6804F0030404FA0EF444EA0C04046081
:102F00004C6814F4403FC1D0204C256E45F00105BB
:102F10002566246E04F001040194019C4FEA930C91
:102F20000CF10205174C54F8255003F0030E4FEA3C
:102F30008E0E0F2404FA0EF425EA0405B0F1904F2A
:102F40003FF46EAF124CA04212D004F58064A04250
:102F500010D004F58064A0420ED004F58064A04235
:102F60000CD004F58064A0423FF458AF062458E723
:102F7000012456E7022454E7032452E7042450E7CF
:102F800003B0F0BD00000140000401400010024009
:102F9000000400480369194201D001207047002055
:102FA00070470AB18161704781627047436901EAE5
:102FB000030221EA030141EA0241816170470346AD
:102FC00090F82520D2B2022A09D00422C26301203F
:102FD000012283F82520002283F82420704701680D
:102FE0000A6822F00E020A60816C0A6822F480727C
:102FF0000A6001680A6822F001020A60426C02F06D
:103000001F01006C01228A404260DA6C196D516028
:103010005A6D42B1116821F4807111609A6DD96DB9
:1030200051600020D4E70020D2E708B590F82530A1
:10303000DBB2022B09D00423C363012380F82530BF
:10304000002280F82420184608BD0268136823F087
:103050000E0313600268136823F001031360826C8F
:10306000136823F480731360436C03F01F02016C38
:10307000012393404B60C36C026D5A60436D33B1C2
:103080001A6822F480721A60836DC26D5A6001233F
:1030900080F82530002380F82430836B13B19847E3
:1030A0000020D1E70020CFE7002836D13E4B1B6837
:1030B00003F4C063B3F5806F08D03B4AD2F8803088
:1030C00023F48073C2F8803000207047364AD2F86B
:1030D000803023F48073C2F88030136823F4C06317
:1030E00043F400731360314B1B68322202FB03F37D
:1030F0002F4AA2FB03239B0C013300E0013B2A4A29
:10310000526912F4806F01D0002BF7D1264B5B6916
:1031100013F4806F44D100207047B0F5007F08D0D1
:10312000214A136823F4C06343F4806313600020D2
:1031300070471D4B1B6803F4C063B3F5806F08D064
:10314000194AD2F8803043F48073C2F880300020EE
:103150007047154AD2F8803043F48073C2F880304B
:10316000136823F4C06343F4007313600F4B1B68B0
:10317000322202FB03F30E4AA2FB03239B0C013312
:1031800000E0013B084A526912F4806F01D0002B25
:10319000F7D1054B5B6913F4806F03D100207047B2
:1031A0000320704703207047007000400800002093
:1031B00083DE1B43024A936843F480439360704765
:1031C00000700040074AD36823F4E0631B041B0C23
:1031D000000200F4E060034343F0BF6343F40033B4
:1031E000D360704700ED00E000B5194BDB68C3F316
:1031F0000223C3F1070CBCF1040F28BF4FF0040CED
:1032000003F1040EBEF1060F18D9033B4FF0FF3E49
:103210000EFA0CFC21EA0C0199400EFA03FE22EA98
:103220000E020A4300280BDB1201D2B200F160400B
:1032300000F5614080F800235DF804FB0023E5E71A
:1032400000F00F001201D2B2024B1A54F4E700BF93
:1032500000ED00E014ED00E0002807DB00F01F02A5
:10326000400901239340024A42F82030704700BFD2
:1032700000E100E0002859D010B5044690F8413034
:10328000002B43D0242384F841302268136823F0B4
:10329000010313606368226823F07063136122687E
:1032A000936823F400439360E368012B33D0A36851
:1032B000226843F404439360E368022B31D0226810
:1032C000536843F0007343F4004353602268D368AB
:1032D00023F40043D360236962691343A169226820
:1032E00043EA0123D360E369216A22680B43136038
:1032F0002268136843F001031360002060642023F8
:1033000084F84130206384F8420010BD80F84030DA
:10331000FEF74EF8B6E7A368226843F400439360D3
:10332000CAE723684FF400625A60C8E7012070477B
:10333000034690F84120D2B2202A23D190F84020B1
:10334000012A21D0012280F84020242280F8412047
:103350000068026822F0010202601868026822F424
:1033600080520260186802681143016019680A6897
:1033700042F001020A60202283F84120002083F8F5
:10338000400070470220704702207047034690F8C3
:103390004120D2B2202A21D190F84020012A1FD00A
:1033A000012280F84020242280F841200068026831
:1033B00022F0010202601868026822F4706242EA98
:1033C0000122026019680A6842F001020A602022A4
:1033D00083F84120002083F84000704702207047A6
:1033E0000220704700282FD038B5044603684CF6F9
:1033F000CC421A60036845F255521A60036842686D
:103400005A60036882689A60FEF7C2FE0546236828
:10341000DA6812F0070F0BD0FEF7BAFE401B312816
:10342000F5D92368DB6813F0070FF0D0032005E01F
:103430001969E268914202D01A61002038BD4AF64B
:10344000AA221A600020F9E70120704703684AF6B3
:10345000AA221A60002070472DE9F04782B0054685
:10346000884617461E46FEF793FE0A9B1B1A03EB7F
:103470000609FEF78DFE82462A4B1B68C3F3CB3349
:1034800009FB03F301932B689C6838EA04040CBF22
:1034900001230023BB4240D0B6F1FF3FF3D0FEF73B
:1034A00077FEA0EB0A0048450AD2B9F1000F07D019
:1034B000019A02B14A46019B013B01939146E2E722
:1034C0002A68536823F0E00353606B68B3F5827F8A
:1034D0000BD0AB6AB3F5005F14D0012385F85D30E3
:1034E000002385F85C30032018E0AB68B3F5004F8B
:1034F00002D0B3F5806FECD12A68136823F0400343
:103500001360E6E72A68136823F4005313602A68FF
:10351000136843F400531360DFE7002002B0BDE8F6
:10352000F08700BF080000202DE9F04782B0064672
:103530000C4615461F4600238DF80330FEF728FE83
:103540000A9B1B1A03EB0708FEF722FE8146D6F8FA
:1035500000A0314B1B6803EB8303C3EBC3031B0DBC
:1035600008FB03F3019302E0B7F1FF3F12D1336888
:103570009B6803EA040CAC454AD0B4F5C06FF3D1A4
:10358000002DF1D19AF80C30DBB28DF803309DF8A4
:103590000330E9E7FEF7FCFDA0EB090040450AD245
:1035A000B8F1000F07D0019A02B14246019B013BDE
:1035B00001939046DBE73268536823F0E0035360E1
:1035C0007368B3F5827F0BD0B36AB3F5005F14D094
:1035D000012386F85D30002386F85C30032018E074
:1035E000B368B3F5004F02D0B3F5806FECD1326809
:1035F000136823F040031360E6E73268136823F48E
:10360000005313603268136843F400531360DFE71C
:10361000002002B0BDE8F0870800002070B582B03D
:1036200004460D46164600920B4600224FF4C05148
:10363000FFF77AFFB0B900962B4600228021204682
:10364000FFF70AFFA8B900962B4600224FF4C0618D
:103650002046FFF769FF50B1236E43F02003236635
:10366000032004E0236E43F020032366032002B00E
:1036700070BD236E43F0200323660320F7E7002884
:103680006FD010B50446436A33B94368B3F5827FFF
:1036900005D00023C36102E00023036143610023DE
:1036A000A36294F85D30002B52D0022384F85D3081
:1036B0002268136823F040031360E368B3F5E06FFA
:1036C0004CD90022B3F5706F04D0B3F5E06F01D090
:1036D0000023A362636803F48273A16801F40441C8
:1036E0000B43216901F002010B43616901F0010103
:1036F0000B43A16901F400710B43E16901F038014A
:103700000B43216A01F080010B43A16A01F40051CF
:1037100020680B430360638B03F00403616A01F0CC
:1037200010010B43616B01F008010B43E16801F4E8
:1037300070610B4321681A434A602268D36923F4FD
:103740000063D36100202066012384F85D3010BD42
:1037500084F85C302046FDF7EBFEA6E74FF480527C
:10376000B0E7012070472DE9F04383B01D4690F883
:103770005C30012B00F0F680044688469146012318
:1037800080F85C30FEF704FD074694F85D60F6B201
:10379000012E40F0D480B8F1000F00F0D180B9F1D3
:1037A000000F00F0CD80032384F85D3000232366F2
:1037B000C4F83880A4F83C90A4F83E902364A4F8A0
:1037C0004430A4F846302365E364A368B3F5004FA2
:1037D0001ED023681A6812F0400F03D11A6842F015
:1037E00040021A60E368B3F5E06F42D9636813B131
:1037F000B9F1010F23D1A26B23681288DA60A36BA1
:103800000233A363E38F9BB2013B9BB2E38716E0D5
:103810002268136823F0400313602268136843F49E
:1038200080431360D5E7FEF7B3FCC01BA84203D367
:10383000B5F1FF3F40F08E80002D00F08D80E38FCA
:103840009BB2002B66D023689A6812F0020FEAD070
:10385000A26B1288DA60A36B0233A363B4F83EC094
:103860001FFA8CFC0CF1FF3C1FFA8CFCA4F83EC044
:10387000E5E7636813B1B9F1010F33D1E38F9BB270
:10388000012B0CD9A26B23681288DA60A36B023378
:10389000A363E38F9BB2023B9BB2E38722E0A26B60
:1038A000236812781A73A36B0133A363E38F9BB26F
:1038B000013B9BB2E38715E0A36B1B781373A36BEB
:1038C0000133A363E38F9BB2013B9BB2E38709E023
:1038D000FEF75EFCC01BA84202D3B5F1FF3F3DD10D
:1038E000002D3DD0E38F9BB2A3B12268936813F003
:1038F000020FEDD0E38F9BB2012BDDD9A36B1B88A8
:10390000D360A36B0233A363E38F9BB2023B9BB2F2
:10391000E387E7E73A4629462046FFF77FFE08B1EE
:1039200020232366A36833B901932368DA680192E0
:103930009B680193019B236E13B9002600E00226C9
:10394000012384F85D30002384F85C30304603B0F6
:10395000BDE8F0830326F3E70326F1E70326EFE74C
:103960000326EDE70226F1E77047000010B584B0AA
:10397000044602685168936803F04100012867D04B
:1039800013F0020F02D011F0800F68D113F4B07F52
:1039900068D011F0200F65D013F0400F0FD094F8CD
:1039A0005D00C0B203285FD0206E40F004002066A6
:1039B00000200090D068009090680090009813F06C
:1039C000200F0CD0206E40F00100206600200290F5
:1039D00090680290106820F040001060029A13F482
:1039E000807F09D0236E43F00803236600230393EE
:1039F00023689B680393039B236E002B32D02268BD
:103A0000536823F0E0035360012384F85D3011F024
:103A1000030F31D02268536823F003035360A36D72
:103A20004BB1174A9A63A06DFFF7FFFA18B1236EE6
:103A300043F040032366636DA3B1114A9A63606D3E
:103A4000FFF7F3FA70B1236E43F04003236609E0F9
:103A500011F0400F94D0E36C2046984702E0236DAC
:103A60002046984704B010BD00230193D36801930A
:103A700093680193019BF5E72046FFF775FFF1E797
:103A8000853A000808B5806A0023A0F84630C3874D
:103A9000FFF76AFF08BD704790F83D30DBB2012B9D
:103AA0003AD1022380F83D300268D36843F0010325
:103AB000D36003681B4A934220D0B3F1804F1DD0DE
:103AC000A2F59432934219D002F58062934215D048
:103AD00002F58062934211D002F5943293420DD0E8
:103AE00002F54062934209D002F58052934205D01C
:103AF0001A6842F001021A600020704799680A4A69
:103B00000A40062A0AD0B2F5803F09D01A6842F06E
:103B100001021A60002070470120704700207047A2
:103B200000207047002C01400700010070477047DB
:103B30007047704710B5044603681A6912F0020F07
:103B400012D0DA6812F0020F0ED06FF002021A6182
:103B50000123037703689B6913F0030F00F09F8034
:103B6000FFF7E5FF0023237723681A6912F0040F9B
:103B700013D0DA6812F0040F0FD06FF004021A614C
:103B80000223237723689B6913F4407F00F08D8024
:103B90002046FFF7CCFF0023237723681A6912F031
:103BA000080F12D0DA6812F0080F0ED06FF008027A
:103BB0001A61042323772368DB6913F0030F7BD09A
:103BC0002046FFF7B4FF0023237723681A6912F019
:103BD000100F12D0DA6812F0100F0ED06FF0100232
:103BE0001A61082323772368DB6913F4407F6AD0C6
:103BF0002046FFF79CFF0023237723681A6912F001
:103C0000010F03D0DA6812F0010F63D123681A693B
:103C100012F0800F03D0DA6812F0800F61D12368B0
:103C20001A6912F4807F03D0DA6812F0800F5FD136
:103C300023681A6912F0400F03D0DA6812F0400FBF
:103C40005DD123681A6912F0200F03D0DA6812F0F0
:103C5000200F5BD123681A6912F4801F03D0DA6841
:103C600012F4801F59D123681A6912F4001F03D07F
:103C7000DA6812F4001F57D123681A6912F4800F12
:103C800003D0DA6812F4800F55D123681A6912F450
:103C9000000F03D0DA6812F4000F53D110BDFFF704
:103CA00045FF2046FFF744FF5CE72046FFF73EFF55
:103CB0002046FFF73DFF6EE72046FFF737FF20461F
:103CC000FFF736FF7FE72046FFF730FF2046FFF77C
:103CD0002FFF90E76FF001021A612046FDF7BEF852
:103CE00094E76FF080021A61204600F0F8F996E739
:103CF0006FF480721A61204600F0F2F998E76FF0D5
:103D000040021A612046FFF714FF9AE76FF0200285
:103D10001A61204600F0E2F99CE76FF480121A6104
:103D2000204600F0DEF99EE76FF400121A6120468B
:103D300000F0D8F9A0E76FF480021A61204600F085
:103D4000D2F9A2E76FF400021A61204600F0CCF924
:103D5000A4E700000368364A904216D0B0F1804FC5
:103D600013D0A2F5943290420FD002F580629042B7
:103D70000BD002F58062904207D002F59432904257
:103D800003D002F5E052904203D123F070034A6859
:103D90001343274A904222D0B0F1804F1FD0A2F5A2
:103DA000943290421BD002F58062904217D002F507
:103DB0008062904213D002F5943290420FD002F507
:103DC000406290420BD002F58062904207D002F52B
:103DD0008062904203D002F50062904203D123F446
:103DE0004073CA68134323F080034A691343036096
:103DF0008B68C3620B6883620D4B984213D003F546
:103E0000006398420FD003F5406398420BD003F54E
:103E10008063984207D003F58063984203D003F58E
:103E20000063984201D10B6903630123436170472A
:103E3000002C014060B310B5044690F83D3013B338
:103E4000022384F83D30214651F8040BFFF782FF2E
:103E5000012384F8483084F83E3084F83F3084F8F9
:103E6000403084F8413084F8423084F8433084F89C
:103E7000443084F8453084F8463084F8473084F87C
:103E80003D30002010BD80F83C30FFF704FED7E73E
:103E900001207047002853D0F8B50D46044690F82D
:103EA0003D30002B47D0022384F83D3022689368D0
:103EB00023F4A03323F007039360214651F8040B49
:103EC000FFF748FF21688B688A690E6A28681843E3
:103ED00022F4407222F00302AB68AF6943EA072381
:103EE000134323F47C4323F0FC03EA68EF6942EABE
:103EF00007221A432B6A1B032F6943EA0713134354
:103F000026F0AA066A686D6942EA051232438860A3
:103F100021688B6123681A62012384F8483084F891
:103F20003E3084F83F3084F8443084F8453084F8DB
:103F30003D300020F8BD80F83C30FDF79DFBB2E736
:103F40000120704701F01F014FF0010C0CFA01FC39
:103F5000036A23EA0C030362036A8A401343036281
:103F6000704738B5044690F83E00C0B294F83F3030
:103F700094F84420D2B294F845C00D46B1B9012856
:103F800049D1012A48D1022384F83E3084F84430D4
:103F90007DB3042D39D0012200212068FFF7D2FF24
:103FA000012204212068FFF7CDFF27E0DBB25FFA92
:103FB0008CFC042912D0012833D1012B2CD1012AE9
:103FC00031D1BCF1010F30D1022384F83E3084F8A6
:103FD0003F3084F8443084F84530D9E7012B1CD1B8
:103FE000BCF1010F1BD1022384F83F3084F8453027
:103FF000CEE7012200212068FFF7A4FF22681368A2
:1040000043F001031360002006E001220421206830
:10401000FFF798FFF2E7012038BD0120FCE71846C2
:10402000FAE70120F8E71846F6E71046F4E7000043
:1040300090F83C20012A4CD030B40346012280F88D
:104040003C20022280F83D20006842688468224DAE
:10405000A84207D005F50065A84203D005F5E05554
:10406000A84203D122F470024D682A4322F0007264
:1040700022F070020D682A4342601A681648824294
:104080001AD0B2F1804F17D0A0F59430824213D0ED
:1040900000F5806082420FD000F5806082420BD034
:1040A00000F59430824207D000F54060824203D090
:1040B00000F58050824204D124F0800489682143B5
:1040C0009160012283F83D20002083F83C0030BC41
:1040D00070470220704700BF002C014070477047B6
:1040E00070477047704770477047026852E8003F5A
:1040F00023F4907342E800310029F6D1026802F1FE
:10410000080353E8003F23F0805323F001030832F3
:1041100042E800310029F1D1C36E012B06D02023E3
:10412000C0F888300023C36603677047026852E80E
:10413000003F23F0100342E800310029F6D1EEE7FA
:10414000704708B5026852E8003F23F0400342E898
:1041500000310029F6D12023C0F8843000234367C2
:10416000FFF7EEFF08BD704708B5806A0023A0F88E
:104170005E30A0F85630FFF7F6FF08BD704700002C
:1041800070B504460168CB6908688D6840F60F0277
:104190001A4008D113F0200F05D010F0200F34D1B1
:1041A00015F0805F31D12AB1954A2A4033D1954E1E
:1041B000304230D1E26E012A00F0C38013F4801F38
:1041C00003D015F4800F40F05B8113F0800F07D00F
:1041D00010F0800F40F05B8115F4000F40F0578124
:1041E00013F0400F03D010F0400F40F0578113F44C
:1041F000000F03D010F0804F40F0548113F0807F07
:1042000002D00028C0F2528170BD236F002BFBD07A
:1042100020469847F8E713F0010F09D010F4807F8B
:1042200006D001260E62D4F88C103143C4F88C10ED
:1042300013F0020F0BD015F0010F08D021680226F1
:104240000E62D4F88C1041F00401C4F88C1013F005
:10425000040F0BD015F0010F08D0216804260E6260
:10426000D4F88C1041F00201C4F88C1013F0080F40
:104270000BD010F0200F00D13AB122680821116252
:10428000D4F88C200A43C4F88C2013F4006F0CD0AF
:1042900010F0806F09D022684FF400611162D4F8E9
:1042A0008C2042F02002C4F88C20D4F88C20002A04
:1042B000AAD013F0200F09D010F0200F02D115F072
:1042C000805F03D0236F0BB120469847D4F88C2031
:1042D00023689B6813F0400F02D112F0280F29D0F9
:1042E0002046FFF702FF23689B6813F0400F1DD0A4
:1042F000226802F1080353E8003F23F0400308322C
:1043000042E800310029F3D1E36F5BB13E4A9A6382
:10431000E06FFEF78AFE00283FF476AFE06F836B14
:10432000984771E72046FFF71EFF6DE72046FFF72D
:104330001AFF69E72046FFF716FF0023C4F88C3008
:1043400062E713F0100F3FF439AF10F0100F3FF495
:1043500035AF10230B6223689B6813F0400F55D0D4
:10436000E26F13685B689BB2002B3FF44DAFB4F86B
:104370005C1099427FF648AFA4F85E3013681B6862
:1043800013F0200F31D1226852E8003F23F48073EC
:1043900042E800310029F6D1226802F1080353E80F
:1043A000003F23F00103083242E800310029F3D135
:1043B000226802F1080353E8003F23F0400308326B
:1043C00042E800310029F3D12023C4F888300023CB
:1043D000E366226852E8003F23F0100342E8003110
:1043E0000029F6D1E06FFEF7EAFDB4F85C10B4F8EE
:1043F0005E309BB2C91A89B22046FFF7BFFE03E7C1
:10440000010000102001000469410008B4F85C10AC
:10441000B4F85E309BB2C91A89B2B4F85E309BB270
:10442000002B3FF4F1AE00293FF4EEAE226852E8D3
:10443000003F23F4907342E800300028F6D1226850
:1044400002F1080353E8003F23F0805323F00103F7
:10445000083242E800300028F1D12023C4F8883027
:104460000023E3662367226852E8003F23F010032D
:1044700042E800300028F6D12046FFF77FFEC3E671
:104480004FF480130B62204600F03CFBBCE6636FE8
:10449000002B3FF4B9AE20469847B5E62046FFF71B
:1044A00050FEB1E6204600F02FFBADE6204600F0BE
:1044B0002AFBA9E670B504460168836802691343C4
:1044C00042691343C26913430868964A02401A437B
:1044D0000A602268536823F44053E1680B43536039
:1044E000A1692268904B9A4201D0236A19439368CC
:1044F00023F06E4323F430630B4393602268D36A46
:1045000023F00F03616A0B43D3622368874A934207
:1045100010D0874A934221D0864A934237D0864AA8
:1045200093425CD0854A93426BD07F4A93427DD0C0
:1045300010223AE002F55842D2F8882002F0030235
:10454000032A09D8DFE802F00204870601222CE0E2
:1045500004222AE0082228E0102226E002F5E632B2
:10456000D2F8882002F00C020C2A0ED8DFE802F004
:10457000070D0D0D090D0D0D750D0D0D0B00002214
:1045800013E0042211E008220FE010220DE002F5F2
:10459000E432D2F8882002F03002202A5FD01AD804
:1045A000002A5ED0102A5ED104225F498B4276D069
:1045B000E069B0F5004F00F0C980082A00F23481AC
:1045C000DFE812F0F7001901F50032011C01320199
:1045D000320132011F01302A47D10822E5E702F5F6
:1045E000E232D2F8882002F0C002802A3FD004D8FC
:1045F000FAB3402A3FD10422D7E7C02A3DD108228E
:10460000D3E702F5E032D2F8882002F44072B2F526
:10461000007F34D005D8A2B3B2F5807F33D1042215
:10462000C3E7B2F5407F30D10822BEE702F5C832B9
:10463000D2F8882002F44062B2F5006F27D005D886
:104640003AB3B2F5806F26D10422AEE7B2F5406FDF
:1046500023D10822A9E70222A7E70222A5E7022226
:10466000A3E70022A1E710229FE710229DE7022284
:104670009BE7002299E7102297E7102295E7022294
:1046800093E7002291E710228FE710228DE70222A4
:104690008BE7002289E7102287E7102285E7082AA6
:1046A00000F2B280DFE802F008B03BB038B0B0B042
:1046B00005004FF4004004E0FEF76AF9002800F01E
:1046C000A580626A1E4B33F81220B0FBF2F36568D6
:1046D00005EB4501994200F29B80B3EB053F00F2E8
:1046E0009980002633463146FCF728FA090241EA50
:1046F000106100026B08C0182A46334641F10001E0
:10470000FCF71CFAA0F540720E4B9A4200F284802E
:104710002368D860304665E0FDF7F4FFCEE70A482D
:10472000CFE700BFF369FFCF0080004000380140B1
:104730000044004000480040004C00400050004051
:1047400014200108FFFC0F000024F400082A65D89B
:10475000DFE802F0072705642A6464640B0035482B
:1047600003E0FEF715F900285AD0626A324B33F89D
:104770001230B0FBF3F06268530803EB4003B3FB65
:10478000F2F3A3F110014FF6EF7291424AD89AB2B8
:1047900022F00F02C3F3420313432268D3600020C8
:1047A00020E0FEF707F9DEE7FDF7ACFFDBE7214885
:1047B00003E0FEF7EDF8002838D0626A1E4B33F8AC
:1047C0001230B0FBF3F0636800EB5300B0FBF3F082
:1047D000A0F110024FF6EF739A4229D8236880B2F5
:1047E000D86000200123A4F86A30A4F868300023C0
:1047F0002367636770BDFEF7DDF8DCE7FDF782FF36
:10480000D9E74FF40040D8E70120EBE70020E9E7C3
:104810000120E7E70120E5E70120E3E70120E1E7E8
:104820000020DFE70120DDE70120DBE70020D9E7FA
:104830000120D7E70024F40014200108836A13F054
:10484000010F06D00268536823F40033C16A0B439A
:104850005360836A13F0020F06D00268536823F492
:104860008033016B0B435360836A13F0040F06D04F
:104870000268536823F48023416B0B435360836ABF
:1048800013F0080F06D00268536823F40043816BCD
:104890000B435360836A13F0100F06D002689368CD
:1048A00023F48053C16B0B439360836A13F0200F92
:1048B00006D00268936823F40053016C0B439360A5
:1048C000836A13F0400F0AD00268536823F4801300
:1048D000416C0B435360436CB3F5801F0BD0836A6C
:1048E00013F0800F06D00268536823F40023C16CD4
:1048F0000B43536070470268536823F4C003816C14
:104900000B435360EBE72DE9F84305460F46164687
:104910009946DDF820802B68DC6937EA04040CBF77
:1049200001240024B44257D1B8F1FF3FF3D0FDF782
:104930002FFCA0EB090040452FD8B8F1000F2CD078
:104940002B681A6812F0040FE5D0DA6912F4006FD0
:10495000E1D04FF400621A622A6852E8003F23F463
:10496000D07342E800310029F6D12A6802F1080329
:1049700053E8003F23F00103083242E800310029E8
:10498000F3D12023C5F88430C5F88830C5F88C30C1
:10499000002385F8803003201FE02A6852E8003F9A
:1049A00023F4D07342E800310029F6D12A6802F1DD
:1049B000080353E8003F23F00103083242E80031C6
:1049C0000029F3D12023C5F88430C5F888300023AE
:1049D00085F88030032000E00020BDE8F88330B582
:1049E00083B004460023C0F88C30FDF7D1FB0546A8
:1049F0002268126812F0080F0FD123681B6813F0A9
:104A0000040F18D12023C4F88430C4F88830002063
:104A1000E06684F8800003B030BD6FF07E43009301
:104A2000034600224FF400112046FFF76CFF0028D8
:104A3000E3D00320EFE76FF07E4300932B46002284
:104A40004FF480012046FFF75EFF0028DAD00320F4
:104A5000E1E778B310B50446D0F884300BB32423D3
:104A6000C4F884302268136823F0010313602046E1
:104A7000FFF720FD012813D0A36ABBB92268536851
:104A800023F4904353602268936823F02A039360D1
:104A90002268136843F0010313602046FFF79FFF6D
:104AA00010BD80F88030FCF763FED8E72046FFF7A2
:104AB000C5FEE3E701207047436E2BB90123A0F840
:104AC0006A30A0F86830704730B403689A68C2F35F
:104AD00042629968490F094D6B5CDB00084C615CD0
:104AE00093FBF1F3A0F86A30AB5CDB00A25C93FBB4
:104AF000F2F3A0F8683030BC704700BF34200108E2
:104B00002C20010870477047704790F88030012BC7
:104B100018D0012380F880302423C0F88430036843
:104B20001A68196821F00101196022F0005200236F
:104B3000436601680A602022C0F8842080F8803033
:104B4000184670470220704738B590F88030012B26
:104B50001DD00446012380F880302423C0F884301F
:104B600003681D681A6822F001021A6002689368DF
:104B700023F0604319439160FFF79EFF23681D6097
:104B80002023C4F88430002084F8800038BD02203F
:104B9000FCE738B590F88030012B1DD00446012386
:104BA00080F880302423C0F8843003681D681A68B8
:104BB00022F001021A600268936823F060631943CF
:104BC0009160FFF779FF23681D602023C4F88430CB
:104BD000002084F8800038BD0220FCE7034AD2F8A8
:104BE000883043F47003C2F88830704700ED00E06D
:104BF00000F1080343604FF0FF328260C36003613D
:104C000000230360704700230361704743684B60D3
:104C10009A688A6051609960086103680133036093
:104C2000704730B40D68B5F1FF3F11D000F10803B3
:104C30001C465B681A68AA42FAD963684B6099609F
:104C40008C606160086103680133036030BC7047A9
:104C50000469F2E70369416882688A6041685160CB
:104C60005A68824206D0002202611A68013A1A602C
:104C70001868704782685A60F5E70346406A18B1C1
:104C80001B6B1868C0F13800704710B5044601F07E
:104C900099FFA26BE36B9A4204D0002401F0B4FFA9
:104CA000204610BD0124F9E710B5044601F08AFF43
:104CB000A36B23B9012401F0A7FF204610BD0024F7
:104CC000F9E770B504461546866B026C5AB903685D
:104CD0001BB100200136A66370BD806801F000FAA8
:104CE0000023A360F6E76DB9406802F0C8FF226CAC
:104CF000636813446360A268934219D323686360B6
:104D00002846E7E7C06802F0BAFF226C5142E36828
:104D10009B1AE3602268934202D2A3680B44E360CB
:104D2000022D01D00020D5E726B1013E0020D1E7B9
:104D30002846CFE70020CDE70346026C6AB110B5E4
:104D40000846D9681144D9609C68A14201D319680A
:104D5000D960D96802F093FF10BD704738B5054699
:104D600001F030FF95F8454064B201E0013C64B2C7
:104D7000002C0ADD6B6A43B105F1240001F098F8BC
:104D80000028F3D001F044F9F0E7FF2385F845301F
:104D900001F03AFF01F016FF95F8444064B201E0DB
:104DA000013C64B2002C0ADD2B6943B105F110000F
:104DB00001F07EF80028F3D001F02AF9F0E7FF2394
:104DC00085F8443001F020FF38BD38B5E0B10D461C
:104DD000044601F0F7FE2368E26B216C01FB023010
:104DE000A0600020A0636360013A02FB0133E3602E
:104DF000FF2384F8443084F84530FDB9236963B952
:104E000001F002FF012038BD4FF0500383F31188F9
:104E1000BFF36F8FBFF34F8FFEE704F1100001F077
:104E200047F80028ECD04FF0E0234FF08052C3F851
:104E3000042DBFF34F8FBFF36F8FE1E704F1100034
:104E4000FFF7D6FE04F12400FFF7D2FED8E738B50D
:104E50001D46049C0B4649B92460E063236401218C
:104E60002046FFF7B2FF84F84C5038BD2260F4E7CB
:104E700040B94FF0500383F31188BFF36F8FBFF336
:104E80004F8FFEE710B584B01C46844653B192B1F3
:104E900089B94FF0500383F31188BFF36F8FBFF3CD
:104EA0004F8FFEE74FF0500383F31188BFF36F8FEE
:104EB000BFF34F8FFEE76AB150230393039B502B40
:104EC00013D04FF0500383F31188BFF36F8FBFF3FC
:104ED0004F8FFEE70029EFD04FF0500383F3118886
:104EE000BFF36F8FBFF34F8FFEE7039B012384F85F
:104EF000463000949DF818306046FFF7A8FF204622
:104F000004B010BD40B94FF0500383F31188BFF3D4
:104F10006F8FBFF34F8FFEE7F0B583B00D46144699
:104F2000064601FB00F0503001F028FD074650B165
:104F3000002380F846300090234600F150022946B5
:104F40003046FFF784FF384603B0F0BD40B94FF05C
:104F5000500383F31188BFF36F8FBFF34F8FFEE7CA
:104F600010B582B00C46884208D24FF0500383F34C
:104F70001188BFF36F8FBFF34F8FFEE702230093BB
:104F8000134600221146FFF773FF00B1846302B09D
:104F900010BD40B94FF0500383F31188BFF36F8FFA
:104FA000BFF34F8FFEE710B50C46884208D24FF092
:104FB000500383F31188BFF36F8FBFF34F8FFEE76A
:104FC00002220021FFF79EFF00B1846310BDF0B5FF
:104FD00085B0019288B10F461D460446B1B1022D3D
:104FE00020D1E36B012B1DD04FF0500383F31188C8
:104FF000BFF36F8FBFF34F8FFEE74FF0500383F384
:105000001188BFF36F8FBFF34F8FFEE7036C002B48
:10501000E5D04FF0500383F31188BFF36F8FBFF3D8
:105020004F8FFEE701F000F8064658B9019B002BB0
:1050300048D04FF0500383F31188BFF36F8FBFF355
:105040004F8FFEE700263DE02A4639462046FFF70F
:1050500038FE636A7BB948B14FF0E0234FF08052CD
:10506000C3F8042DBFF34F8FBFF36F8F01F0CCFD5A
:10507000012005B0F0BD04F1240000F019FF002864
:10508000F4D04FF0E0234FF08052C3F8042DBFF36B
:105090004F8FBFF36F8FE9E701F0B6FD0020E8E71F
:1050A00002A800F067FF012619E0002384F84430CD
:1050B00021E0002384F8453023E02046FFF74EFE30
:1050C00000F0D6FD01F07EFDA26BE36B9A42BBD3EC
:1050D000022DB9D0019B002BDED0002EE0D001F0D4
:1050E00093FD00F02BFD01F06DFD94F8442052B2C9
:1050F000B2F1FF3FD9D094F8452052B2B2F1FF3F50
:10510000D7D001F081FD01A902A800F03FFFD8B976
:105110002046FFF7BAFD0028CFD0019904F1100016
:1051200000F092FE2046FFF719FE00F0A1FD0028D6
:10513000C8D14FF0E0234FF08052C3F8042DBFF3E5
:105140004F8FBFF36F8FBDE72046FFF707FE00F0DC
:105150008FFD00208DE748B108B500218160016016
:10516000C1600B460A46FFF732FF08BD704710B515
:1051700082B00B460090002211460120FFF778FE16
:105180000446FFF7E8FF204602B010BD38B538B13D
:105190000446856800F042FF85420AD0002038BDF1
:1051A0004FF0500383F31188BFF36F8FBFF34F8F1E
:1051B000FEE7E368013BE3600BB10120EFE71A462D
:1051C00019462046FFF703FF0120E8E72DE9F843E1
:1051D00090B10F4616461C460546B1B1022C20D1AF
:1051E000EB6B012B1DD04FF0500383F31188BFF3FD
:1051F0006F8FBFF34F8FFEE74FF0500383F311889B
:10520000BFF36F8FBFF34F8FFEE7036C002BE5D02A
:105210004FF0500383F31188BFF36F8FBFF34F8FAD
:10522000FEE701F0F5FDEFF311884FF0500383F333
:105230001188BFF36F8FBFF34F8FAA6BEB6B9A424E
:1052400006D3022C04D0002088F31188BDE8F8832F
:1052500095F845904FFA89F9AB6B224639462846B6
:10526000FFF72FFDB9F1FF3F06D009F101035BB253
:1052700085F845300120E7E76B6A0BB90120E3E7C9
:1052800005F1240000F014FE18B126B101203060B1
:10529000DAE70120D8E70120D6E7F0B585B0019222
:1052A00090B10F460446C1B100F0BEFE064600BBF9
:1052B000019B002B5ED04FF0500383F31188BFF3A6
:1052C0006F8FBFF34F8FFEE74FF0500383F31188CA
:1052D000BFF36F8FBFF34F8FFEE7036C002BE3D05C
:1052E0004FF0500383F31188BFF36F8FBFF34F8FDD
:1052F000FEE700263EE039462046FFF71DFD013D52
:10530000A563236923B901F07FFC012005B0F0BD3E
:1053100004F1100000F0CCFD0028F4D04FF0E023A1
:105320004FF08052C3F8042DBFF34F8FBFF36F8F40
:10533000E9E701F069FC0020E8E702A800F01AFEA6
:10534000012621E0002384F8443029E0002384F87A
:1053500045302BE02046FFF701FD00F089FC09E015
:105360002046FFF7FBFC00F083FC2046FFF79CFC87
:1053700000283FD101F026FCA56B002DBBD1019B7D
:10538000002BD6D0002ED8D001F03EFC00F0D6FB8A
:1053900001F018FC94F844305BB2B3F1FF3FD1D078
:1053A00094F845305BB2B3F1FF3FCFD001F02CFC55
:1053B00001A902A800F0EAFD0028D1D12046FFF79C
:1053C00073FC0028C6D0019904F1240000F03CFDD4
:1053D0002046FFF7C3FC00F04BFC0028CAD14FF079
:1053E000E0234FF08052C3F8042DBFF34F8FBFF37B
:1053F0006F8FBFE7002089E770B584B0019158B185
:105400000446036C8BB14FF0500383F31188BFF354
:105410006F8FBFF34F8FFEE74FF0500383F3118878
:10542000BFF36F8FBFF34F8FFEE700F0FDFD054622
:1054300050B9019B5BB14FF0500383F31188BFF368
:105440006F8FBFF34F8FFEE70026354655E00646C7
:1054500053E0013BA36323683BB123694BB901F0DF
:10546000D3FB0126304604B070BD00F0D1FEA06031
:10547000F3E704F1100000F01BFD0028EFD04FF01F
:10548000E0234FF08052C3F8042DBFF34F8FBFF3DA
:105490006F8FE4E746B14FF0500383F31188BFF3F9
:1054A0006F8FBFF34F8FFEE701F0AEFBDAE702A884
:1054B00000F060FD01252AE0002384F8443032E04A
:1054C000002384F8453034E001F07CFBA06800F054
:1054D000BBFD064601F098FB3BE02046FFF73EFC93
:1054E00000F0C6FB09E02046FFF738FC00F0C0FBE7
:1054F0002046FFF7D9FB002842D101F063FBA36BE4
:10550000002BA6D1019B002BC4D0002DCFD001F0E1
:105510007BFB00F013FB01F055FB94F844305BB2C9
:10552000B3F1FF3FC8D094F845305BB2B3F1FF3F11
:10553000C6D001F069FB01A902A800F027FD0028F0
:10554000D1D12046FFF7B0FB0028C6D02368002B3E
:10555000BAD0019904F1240000F076FC2046FFF750
:10556000FDFB00F085FB0028C7D14FF0E0234FF092
:105570008052C3F8042DBFF34F8FBFF36F8FBCE78A
:105580000EB900266EE701F01DFB2046FFF775FB04
:105590000146A06800F0ECFD01F036FBF1E780B1B8
:1055A00070B50C460546866800F038FD864211D07D
:1055B00021462846FFF720FF80B1EB680133EB60FE
:1055C0000CE04FF0500383F31188BFF36F8FBFF3EC
:1055D0004F8FFEE7EB680133EB60012070BD0000E8
:1055E0000023072B0CD8074A52F833200AB10133A5
:1055F000F7E7044A42F8331002EBC30250607047E9
:10560000704700BF2C0500200023072B0FD8084A45
:1056100002EBC3025268824201D00133F5E7044A2B
:10562000002142F8331002EBC3025160704770470B
:105630002C05002038B110B50446FFF7E5FF94F8BB
:1056400046304BB110BD4FF0500383F31188BFF3C8
:105650006F8FBFF34F8FFEE7204601F00DFAF1E7A1
:1056600070B504460D46164601F0ACFA94F8443085
:105670005BB2B3F1FF3F0DD094F845305BB2B3F1AC
:10568000FF3F0BD001F0C0FAA36B5BB12046FFF7E0
:1056900065FB70BD002384F84430EDE7002384F8F7
:1056A0004530EFE73246294604F1240000F0E4FBE0
:1056B000ECE70000084B1B681B6823B9074B4FF051
:1056C000FF321A607047044B1B68DB68DB685A685E
:1056D000024B1A60704700BF70050020180A0020B6
:1056E0002DE9F04780460D4617469946089EDDF89D
:1056F00024A00A9C9200A521206B02F044FA236B9F
:1057000007F18042013A03EB820727F00707A5B3B0
:105710004FF0000CBCF10F0F09D815F80C3004EB5A
:105720000C0282F8343013B10CF1010CF2E70023C3
:1057300084F84330372E00D93726E662E664002528
:105740002565201DFFF75FFA04F11800FFF75BFAEB
:105750002461C6F13806A6616462656584F8585014
:105760004A464146384601F003FA2060BAF1000F7C
:1057700001D0CAF80040BDE8F087002384F8343037
:10578000D8E7000038B5002407E004EB840293005A
:105790000E481844FFF72CFA0134372CF5D90C4D7C
:1057A0002846FFF725FA0B4C2046FFF721FA0A4856
:1057B000FFF71EFA0948FFF71BFA0948FFF718FA26
:1057C000084B1D60084B1C6038BD00BF78050020E9
:1057D000EC090020000A0020240A0020500A0020C2
:1057E0003C0A0020700500207405002010B5044616
:1057F00001F0E8F9224A136801331360214B1B685A
:105800005BB1214B1B686BB91E4B1B68DA6AE36AFC
:105810009A4207D81B4B1C6004E01A4B1C601368AB
:10582000012B29D0194A1368013313606364E06ABD
:10583000174B1B68984201D9154B186000EB80008C
:10584000211D144B03EB8000FFF7E0F901F0DCF9B8
:105850000D4B1B687BB10B4B1B68DA6AE36A9A42FB
:1058600009D24FF0E0234FF08052C3F8042DBFF36C
:105870004F8FBFF36F8F10BDFFF784FFD2E700BFDC
:10588000D80900206C050020380A0020E409002017
:10589000E80900207805002010B5044690F859303A
:1058A00063B1012B11D0022B0ED04FF0500383F3C4
:1058B0001188BFF36F8FBFF34F8FFEE7006B01F0CE
:1058C000DBF8204601F0D8F810BD01F0D5F8FBE771
:1058D0000F4B1B68D3B110B501F074F90D4BDB68A9
:1058E000DC68201DFFF7B6F90B4A1368013B136013
:1058F000074A1368013B136001F086F92046FFF761
:10590000CBFF034B1B68002BE6D110BD704700BFD7
:10591000DC090020500A0020D809002008B5FFF754
:10592000D7FF074B1B68012BF9D94FF0E0234FF04D
:105930008052C3F8042DBFF34F8FBFF36F8FEEE794
:105940007805002070B504460D46174B1E68174BAE
:1059500018680430FFF77EF9B4F1FF3F0DD03444EE
:10596000124B1B685C60A64210D9114B18680F4B94
:1059700019680431FFF755F970BD002DEFD00B4BBE
:10598000196804310B48FFF741F9F5E70A4B18682D
:10599000064B19680431FFF744F9084B1B68A34212
:1059A000EAD9064B1C60E7E7640A00206C0500207A
:1059B000740500203C0A002070050020180A002011
:1059C00030B587B00B9C7CB10C9DB5B15C250495BE
:1059D000049D5C2D1AD04FF0500383F31188BFF360
:1059E0006F8FBFF34F8FFEE74FF0500383F31188A3
:1059F000BFF36F8FBFF34F8FFEE74FF0500383F37A
:105A00001188BFF36F8FBFF34F8FFEE7049D0C9D8E
:105A10002C63022485F8594000240394029505ACB8
:105A200001940A9C0094FFF75BFE0C98FFF7DEFEE2
:105A3000059807B030BD2DE9F04385B0074688468C
:105A400014461E46900000F099FF00B381465C208A
:105A500000F094FF0546B0B1C0F83090E5B10023E6
:105A600085F85930039302950D9B01930C9B00938D
:105A70003346224641463846FFF732FE2846FFF7B6
:105A8000B5FE012005E0484600F0F6FFE6E74FF0DE
:105A9000FF3005B0BDE8F0834FF0FF30F9E70000BC
:105AA00010B588B000240594069407AA06A905A895
:105AB00000F0E6FE059B0293069B019300942346AB
:105AC000079A18491848FFF77BFF184B186040B138
:105AD00000F018FC012806D0B0F1FF3F18D008B044
